:040000006EEF00F0AF
:100008003782FACF19F0FBCF1AF0E9CF1BF0EACF0D
:100018001CF0E1CF1DF0E2CF1EF0D9CF1FF0DACFF0
:1000280020F0F3CF21F0F4CF22F0F6CF23F0F7CF72
:1000380024F0F8CF25F0F5CF26F0F2B254EC0DF00D
:10004800F0B09AEC09F0F0A227D0000E286E000E4E
:10005800276E000E286E000E276E28BE06D0285088
:1000680011E11E0E275CD8B00DD08AA40BD0210E4A
:10007800186E760EE82EFED7182EFCD700D0274A29
:10008800282AEBD71E0E27182810D8A403D05BEC1B
:100098000DF002D0F7EC0CF026C0F5FF25C0F8FFF4
:1000A80024C0F7FF23C0F6FF22C0F4FF21C0F3FFEE
:1000B80020C0DAFF1FC0D9FF1EC0E2FF1DC0E1FF4C
:1000C8001CC0EAFF1BC0E9FF1AC0FBFF19C0FAFFFA
:0800D80037921100F4EF0BF068
:101000000030313233343536373839414243444584
:1010100046004E6F6D6272652070617300002E2E67
:101020002E002E2E2E002E2E2E003B3B3B002E2E71
:101030002E0027272700272727003B3B3B00272799
:101040002700232323001F1F1F002121210023230A
:101050002300272727002E2E2E00272727002323B3
:1010600023002C2C2C00272727002E2E2E003B3B64
:101070003B00343434001F1F1F003B3B3B0027273D
:101080002700232323001F1F1F00212121002323CA
:101090002300272727002E2E2E0027272700232373
:1010A00023002C2C2C00272727002E2E2E003B3B24
:1010B0003B00343434001F1F1F0027272700292935
:1010C00029002C2C2C00313131002E2E2E00232310
:1010D0002300232323003B3B3B00232323003B3BF4
:1010E0003B003434340027272700292929002C2CE1
:1010F0002C00313131002E2E2E003B3B3B003B3B80
:101100003B003B3B3B0027272700292929002C2CAB
:101110002C00313131002E2E2E00232323002323D7
:1011200023003B3B3B00232323003B3B3B00343469
:10113000340027272700292929002C2C2C003131A5
:1011400031002E2E2E0023232300232323003B3B9C
:101150003B00232323003B3B3B0034343400373730
:101160003700343434003B3B3B00000000000000FB
:101170000000959E959C959A95989590959295943A
:1011800095968C8E270E2C6EF50EE82EFED72C2E03
:10119000FCD700F0030E296E010E19EC0CF0040EC2
:1011A0002C6EE40EE82EFED72C2EFCD700D0030EBA
:1011B000296E010E19EC0CF0210EE82EFED700F07E
:1011C000030E296E010E19EC0CF0210EE82EFED74D
:1011D00000F0020E296E010E19EC0CF031EC0DF04E
:1011E000020E296E010E19EC0CF0080E296E010E8C
:1011F00019EC0CF031EC0DF0000E296E010E19EC1B
:101200000CF0080E296E010E19EC0CF031EC0DF00B
:10121000000E296E010E19EC0CF00C0E296E010E59
:1012200019EC0CF031EC0DF0000E296E010E19ECEA
:101230000CF0010E296E010E19EC0CF031EC0DF0E2
:10124000000E296E010E19EC0CF0060E296E010E2F
:1012500019EC0CF031EC0DF01200000E0001686F7B
:10126000000E676F010E0001666FF40E656F000ED1
:101270000001646F000E636F3DD067C029F068C045
:101280002AF070C02BF02C6A31EC0BF0710E29247F
:10129000D96E000E2A20DA6EDF50BB6E70C02BF0C4
:1012A0002C6A67C029F068C02AF031EC0BF0710E8F
:1012B0002924D96E000E2A20DA6EDF500001606FFB
:1012C000010E000160252F6E306A000E3022000EE4
:1012D000326E020E316EF5EC09F02F50BE6EE9EC65
:1012E0000CF0140E0001606F790EE82EFED7602F0F
:1012F000FCD700D0000167510001606F0001685108
:101300000001616F0001674B682B0001655100010E
:10131000605D00016151800A0001626F0001665149
:10132000800A00016259D8A0A8D7000EBE6E8B9229
:10133000F0921200000E176E000E166E010E156E62
:10134000F40E146E000E136E000E126E39D016C01D
:1013500001F017C002F070C003F0046A69EC0BF0F2
:10136000710E0124D96E000E0220DA6EDF50BB6EC2
:1013700070C003F0046A16C001F017C002F069ECF7
:101380000BF0710E0124D96E000E0220DA6EDF50D0
:101390000F6E010E0F24076E086A000E0822000E61
:1013A0000A6E020E096E37EC0AF00750BE6EF7ECBB
:1013B0000CF0140E0F6E7A0EE82EFED70F2EFCD70F
:1013C00016500F6E1750106E164A172A14500F5CE5
:1013D0001050800A116E1550800A1158D8A0B7D746
:1013E000000EBE6E8B92F0921200000E346E32AE82
:1013F00006D0316C321ED8B0322A010E346E30AEB7
:1014000006D02F6C301ED8B0302A010E341A000ED0
:10141000366E000E356E31503210D8B41CD0010E2D
:10142000336E04D0D89031363236332A32AEFAD702
:10143000D8903536363631502F5C32503058D8A0DF
:1014400005D031502F5E3250305A3580D89032322C
:101450003132332EEDD73450D8B404D0356C361E2B
:10146000D8B0362A35C02FF036C030F01200000E4A
:101470000C6E0AAE06D0096C0A1ED8B00A2A010EFC
:101480000C6E08AE06D0076C081ED8B0082A010EF4
:101490000C1A000E0E6E000E0D6E09500A10D8B414
:1014A0001CD0010E0B6E04D0D89009360A360B2AD8
:1014B0000AAEFAD7D8900D360E360950075C0A509E
:1014C0000858D8A005D00950075E0A50085A0D8068
:1014D000D8900A3209320B2EEDD70C50D8B404D074
:1014E0000D6C0E1ED8B00E2A0DC007F00EC008F00D
:1014F0001200000E336E1ED03350010D2FC031F09C
:1015000030C032F0F3503126F450322231C0F6FFB1
:1015100032C0F7FF000EF86E0F0EF76403D008001C
:10152000F55005D0F6CFE9FFF7CFEAFFEF5028ECF2
:101530000DF0332A3350010D2FC031F030C032F09E
:10154000F3503126F450322231C0F6FF32C0F7FF9B
:10155000000EF86E0F0EF76403D00800F55005D0AA
:10156000F6CFE9FFF7CFEAFFEF500009D8B4120039
:10157000C3D7000E0B6E1ED00B50010D07C009F033
:1015800008C00AF0F3500926F4500A2209C0F6FFF9
:101590000AC0F7FF000EF86E0F0EF76403D00800C4
:1015A000F55005D0F6CFE9FFF7CFEAFFEF503AEC60
:1015B0000DF00B2A0B50010D07C009F008C00AF00E
:1015C000F3500926F4500A2209C0F6FF0AC0F7FFBB
:1015D000000EF86E0F0EF76403D00800F55005D02A
:1015E000F6CFE9FFF7CFEAFFEF500009D8B41200B9
:1015F000C3D7C7EC0CF0F18CF29293908A90938051
:101600000F013991F288F18AF09093928A92938235
:101610000F013993F086F188F09293948A94938421
:101620000F013995F08894928B92BA96BA98BA9A2B
:10163000BA9CBA50FC0B0209BA6EBA8494943F0E5D
:10164000BD16CF0EBD16BD50F00B0C09BD6E000EC1
:10165000BE6EF28CF28E000E00016F6F000E6E6F88
:101660001200000E2E6E2AAE06D0296C2A1ED8B0AB
:101670002A2A010E2E6E2CAE04D02B6C2C1ED8B054
:101680002C2A2B502C10D8B418D0010E2D6E04D05B
:10169000D8902B362C362D2A2CAEFAD72B50295C1D
:1016A0002C502A58D8A004D02B50295E2C502A5AEE
:1016B000D8902C322B322D2EF1D72E50D8B404D006
:1016C000296C2A1ED8B02A2A29C029F02AC02AF05B
:1016D0001200000E066E02AE06D0016C021ED8B0DB
:1016E000022A010E066E04AE04D0036C041ED8B0AC
:1016F000042A03500410D8B418D0010E056E04D08B
:10170000D89003360436052A04AEFAD70350015C9C
:1017100004500258D8A004D00350015E0450025A6D
:10172000D89004320332052EF1D70650D8B404D035
:10173000016C021ED8B0022A01C001F002C002F002
:1017400012000001626F61C02FF0306A000E326E2D
:101750000A0E316EF5EC09F02F50300F0001636F67
:1017600061C029F02A6A000E2C6E0A0E2B6E31EC35
:101770000BF02950300F0001646F000E0001656FFF
:1017800060C02EF0000162515DEC0CF0630E2F6E14
:10179000000E306E79EC0AF01200146E10C007F0E3
:1017A000086A000E0A6E0A0E096E37EC0AF007503E
:1017B000300F116E10C001F0026A000E046E0A0EA6
:1017C000036E69EC0BF00150300F126E000E136EB9
:1017D0000FC006F014507AEC0CF0110E076E000EDC
:1017E000086EB9EC0AF012001E0EF66E100EF76EBF
:1017F000000EF86E00EE71F011EE54F00900F5CF16
:10180000EEFFE550E150FAE1E250F8E1CC0EF66E61
:101810001A0EF76E000EF86E0900F5CF70F0000199
:101820006F6B6E6B37903792000EF86E000161EFB0
:101830000DF02B6E2B50D8A403D02A6A2A2A01D08F
:101840002A6A2A3A8C502A18EF0B2A188C6E8C9A26
:101850008C8C8C968C948C928C9000F000F029C02B
:101860002AF00F0E2A168C50F00B2A108C6E00F006
:1018700000F08C9C1200036E0350D8A403D0026ABF
:10188000022A01D0026A023A8C500218EF0B0218A9
:101890008C6E8C9A8C8C8C968C948C928C9000F0A4
:1018A00000F001C002F00F0E02168C50F00B021077
:1018B0008C6E00F000F08C9C1200336E020E2E60D5
:1018C00012000F0E336401D012002E04D8B402D0DF
:1018D000800E01D0C00E33C02FF0306A2F10316E51
:1018E0003050326E31C02CF0010E05EC0DF031ECB1
:1018F0000DF012000B6E020E066012000F0E0B644C
:1019000001D012000604D8B402D0800E01D0C00E5F
:101910000BC007F0086A0710096E08500A6E09C06C
:1019200004F0010E12EC0DF043EC0DF01200958066
:101930009582958495868C8C00F000F08338F00BAE
:10194000296E8C9C8C8C00F000F083500F0B2912B8
:101950008C9C95909592959495962950120095801F
:101960009582958495868C8C00F000F08338F00B7E
:10197000016E8C9C8C8C00F000F083500F0B0112D8
:101980008C9C959095929594959601501200B9EC87
:1019900008F0D9EC0CF0000E2E6E000E5DEC0CF091
:1019A000120E2F6E100E306E79EC0AF01FEC0DF057
:1019B0001200010E2C6E010E05EC0DF0110E2E6EB4
:1019C0003A0EE82EFED72E2EFCD700D031EC0DF0CB
:1019D00012008BB203D0296A292A01D0296A29462C
:1019E0008B502918FD0B29188B6EF09012008BB2CA
:1019F00003D0016A012A01D0016A01468B50011807
:101A0000FD0B01188B6EF09012002D6E2C380F0B11
:101A1000296E2D5019EC0CF02CC029F02D5019EC2A
:101A20000CF01200056E04380F0B016E05503BECF4
:101A30000CF004C001F005503BEC0CF01200010E5C
:101A40000001606F6EC061F0000EA1EC0BF012009F
:101A50002E6E2EC02CF0000E05EC0DF031EC0DF0CA
:101A600012008C988C8A97EC0CF02A6E2ABEFBD759
:101A70008C9A1200066E06C004F0000E12EC0DF0F7
:101A800043EC0DF012008C988C8AAFEC0CF0026ED7
:101A900002BEFBD78C9A1200010E0F6E6EC010F0C2
:101AA000000ECDEC0BF0120000016E4B6F2BF2928A
:101AB0004CEC0DF01200000E00016F6F000E6E6F07
:0D1AC0001200F9EC0AF02DEC09F0FFD754EC
:020000040020DA
:08000000FFFFFFFFFFFFFFFF00
:020000040030CA
:0E000000FF291E3CFFBF81FF00000000000032
:00000001FF
