:0400000087EF00F096
:100008003882FACF18F0FBCF19F0E9CF1AF0EACF0F
:100018001BF0E1CF1CF0E2CF1DF0D9CF1EF0DACFF4
:100028001FF0F3CF20F0F4CF21F0F6CF22F0F7CF76
:1000380023F0F8CF24F0F5CF25F0F2B296EC0CF0CF
:10004800F0B014EC08F0F0A240D0000E276E000EBD
:10005800266E620E176E660EE82EFED7172EFCD798
:10006800000E276E030E266E27BE06D0275018E115
:100078001E0E265CD8B014D0010E0F6E26C010F0EC
:10008800080EE4EC0AF081A40BD0210E176E760E50
:10009800E82EFED7172EFCD700D0264A272AE4D709
:1000A800010E066E080E94EC0BF01D0E076E100E76
:1000B800086ED1EC09F01E0E26182710D8A403D01C
:1000C8000BEC0BF002D04AEC0CF025C0F5FF24C075
:1000D800F8FF23C0F7FF22C0F6FF21C0F4FF20C0BD
:1000E800F3FF1FC0DAFF1EC0D9FF1DC0E2FF1CC00E
:1000F800E1FF1BC0EAFF1AC0E9FF19C0FBFF18C0E7
:0A010800FAFF38921100B1EF0BF07E
:101000000030313233343536373839414243444584
:1010100046004E6F6D627265207061730020202063
:10102000200053796E630000000E146E320E136EB2
:10103000000E166E000E156E000E126E000E45D0DC
:1010400013C001F014C002F034C003F0046A49EC8C
:101050000AF0310E0124D96E000E0220DA6EDF5044
:10106000BB6E34C003F0046A13C001F014C002F078
:1010700049EC0AF0310E0124D96E000E0220DA6E1E
:10108000DF500F6E010E0F24076E086A000E082253
:10109000000E0A6E020E096E8FEC09F00750BE6E4C
:1010A0004AEC0CF0000E166E000E156E16BE06D041
:1010B000165022E10A0E155CD8B01ED0F0A28AB4F8
:1010C00001D005D0000E126E010E116E15D0210E4A
:1010D0000F6E760EE82EFED70F2EFCD700D016BE70
:1010E00008D0165004E1060E155CD8A002D0000E00
:1010F000BE6E154A162ADAD713500F6E1450106EB2
:10110000010E135E000E145A10BE09D0105003E1F8
:101110000F04D8A004D011501210D8B491D7000EEB
:10112000BE6E8B92F090F0921200959E959C959ACF
:10113000959895909592959495968C8E270E2B6EFA
:10114000F50EE82EFED72B2EFCD700F0030E286EEE
:10115000010E2FEC0BF0040E2B6EE40EE82EFED7E2
:101160002B2EFCD700D0030E286E010E2FEC0BF0B7
:10117000210EE82EFED700F0030E286E010E2FEC94
:101180000BF0210EE82EFED700F0020E286E010EA5
:101190002FEC0BF07BEC0CF0020E286E010E2FEC06
:1011A0000BF0080E286E010E2FEC0BF07BEC0CF010
:1011B000000E286E010E2FEC0BF0080E286E010EAB
:1011C0002FEC0BF07BEC0CF0000E286E010E2FECD8
:1011D0000BF00C0E286E010E2FEC0BF07BEC0CF0DC
:1011E000000E286E010E2FEC0BF0010E286E010E82
:1011F0002FEC0BF07BEC0CF0000E286E010E2FECA8
:101200000BF0060E286E010E2FEC0BF07BEC0CF0B1
:101210001200000E306E20D03050010D2EC060F054
:101220002FC061F0F35000016027F45000016123EA
:1012300060C0F6FF61C0F7FF000EF86E0F0EF76496
:1012400003D00800F55005D0F6CFE9FFF7CFEAFF4D
:10125000EF5072EC0CF0302A3050010D2EC060F0CF
:101260002FC061F0F35000016027F45000016123AA
:1012700060C0F6FF61C0F7FF000EF86E0F0EF76456
:1012800003D00800F55005D0F6CFE9FFF7CFEAFF0D
:10129000EF500009D8B41200BFD7000E2D6E2BAE50
:1012A00006D02A6C2B1ED8B02B2A010E2D6E29AE2B
:1012B00006D0286C291ED8B0292A010E2D1A000E3E
:1012C0002F6E000E2E6E2A502B10D8B41CD0010E9B
:1012D0002C6E04D0D8902A362B362C2A2BAEFAD777
:1012E000D8902E362F362A50285C2B502958D8A05B
:1012F00005D02A50285E2B50295A2E80D8902B32A8
:101300002A322C2EEDD72D50D8B404D02E6C2F1E9F
:10131000D8B02F2A2EC028F02FC029F01200000EBE
:101320000C6E0AAE06D0096C0A1ED8B00A2A010E4D
:101330000C6E08AE06D0076C081ED8B0082A010E45
:101340000C1A000E0E6E000E0D6E09500A10D8B465
:101350001CD0010E0B6E04D0D89009360A360B2A29
:101360000AAEFAD7D8900D360E360950075C0A50EF
:101370000858D8A005D00950075E0A50085A0D80B9
:10138000D8900A3209320B2EEDD70C50D8B404D0C5
:101390000D6C0E1ED8B00E2A0DC007F00EC008F05E
:1013A0001200000E0B6E1ED00B50010D07C009F08D
:1013B00008C00AF0F3500926F4500A2209C0F6FFCB
:1013C0000AC0F7FF000EF86E0F0EF76403D0080096
:1013D000F55005D0F6CFE9FFF7CFEAFFEF5084ECE8
:1013E0000CF00B2A0B50010D07C009F008C00AF0E1
:1013F000F3500926F4500A2209C0F6FF0AC0F7FF8D
:10140000000EF86E0F0EF76403D00800F55005D0FB
:10141000F6CFE9FFF7CFEAFFEF500009D8B412008A
:10142000C3D7000E2D6E29AE06D0286C291ED8B069
:10143000292A010E2D6E2BAE04D02A6C2B1ED8B09B
:101440002B2A2A502B10D8B418D0010E2C6E04D0A1
:10145000D8902A362B362C2A2BAEFAD72A50285C65
:101460002B502958D8A004D02A50285E2B50295A36
:10147000D8902B322A322C2EF1D72D50D8B404D04C
:10148000286C291ED8B0292A28C028F029C029F0A4
:101490001200000E066E02AE06D0016C021ED8B01D
:1014A000022A010E066E04AE04D0036C041ED8B0EE
:1014B000042A03500410D8B418D0010E056E04D0CD
:1014C000D89003360436052A04AEFAD70350015CDF
:1014D00004500258D8A004D00350015E0450025AB0
:1014E000D89004320332052EF1D70650D8B404D078
:1014F000016C021ED8B0022A01C001F002C002F045
:10150000120028EC0CF0F19CF29293908A90938058
:101510000F013991F288F19AF09093928A92938216
:101520000F013993F086F188F09293948A94938412
:101530000F013995F08894928B92BA96BA98BA9A1C
:10154000BA9CBA50FC0B0209BA6EBA8494943F0E4E
:10155000BD16CF0EBD16BD50F00B0C09BD6E000EB2
:10156000BE6EF28CF28E000E366E000E356E1200DC
:101570000001656F64C028F0296A000E2B6E0A0E08
:101580002A6E4DEC09F02850300F0001666F64C0E0
:1015900028F0296A000E2B6E0A0E2A6E11EC0AF052
:1015A0002850300F0001676F000E0001686F63C0A4
:1015B0002DF00001655173EC0BF0660E2E6E000EDF
:1015C0002F6E09EC09F01200116E10C007F0086AC6
:1015D000000E0A6E0A0E096E8FEC09F00750300FEC
:1015E000126E10C001F0026A000E046E0A0E036E45
:1015F00049EC0AF00150300F136E000E146E0FC04C
:1016000006F0115094EC0BF0120E076E000E086EEF
:10161000D1EC09F01200010E376E12EC0CF0040E42
:10162000166E2C0E156EAC0EE82EFED7152EFCD7BE
:10163000162EFAD7000E366E000E356E000E376E7F
:10164000F09212EC0CF0010E066E080E94EC0BF00A
:101650001D0E076E100E086ED1EC09F012002A6EF6
:101660002A50D8A403D0296A292A01D0296A293A04
:101670008C502918EF0B29188C6E8C9A8C8C8C96B8
:101680008C948C928C9000F000F028C029F00F0E02
:1016900029168C50F00B29108C6E00F000F08C9CF9
:1016A0001200036E0350D8A403D0026A022A01D0AC
:1016B000026A023A8C500218EF0B02188C6E8C9A58
:1016C0008C8C8C968C948C928C9000F000F001C0E5
:1016D00002F00F0E02168C50F00B02108C6E00F010
:1016E00000F08C9C12000001626F020E2D6012004F
:1016F0000F0E0001626501D012002D04D8B402D093
:10170000800E01D0C00E62C02EF02F6A2E10000194
:10171000606F2F500001616F60C02BF0010E58EC1C
:101720000CF07BEC0CF01200096E020E0660120049
:101730000F0E096401D012000604D8B402D0800E46
:1017400001D0C00E09C007F0086A07100A6E0850E1
:101750000B6E0AC004F0010E65EC0CF08DEC0CF081
:1017600012003E0EF66E190EF76E000EF86E00EEC9
:1017700031F010EE04F00900F5CFEEFFE550E15036
:10178000FAE1376A366A356A38903892000EF86E98
:1017900000019CEF0CF095809582958495868C8C49
:1017A00000F000F08338F00B286E8C9C8C8C00F0DD
:1017B00000F083500F0B28128C9C95909592959475
:1017C00095962850120095809582958495868C8CEC
:1017D00000F000F08338F00B016E8C9C8C8C00F0D4
:1017E00000F083500F0B01128C9C9590959295946C
:1017F000959601501200010E0001636F35C064F030
:10180000000EB8EC0AF03750D8B41200010E2D6E5D
:10181000080E73EC0BF0220E2E6E100E2F6E09ECDC
:1018200009F01200010E0F6E35C010F0000EE4EC4E
:101830000AF03750D8B41200010E066E080E94EC70
:101840000BF0220E076E100E086ED1EC09F012009C
:1018500095EC08F03AEC0CF0000E2D6E000E73ECD7
:101860000BF0120E2E6E100E2F6E09EC09F0FBEC31
:101870000BF01200010E2B6E010E58EC0CF0110E45
:101880002D6E3A0EE82EFED72D2EFCD700D07BEC25
:101890000CF012008BB203D0016A012A01D0016A58
:1018A00001468B500118FD0B01188B6EF09212004F
:1018B0002C6E2B380F0B286E2C502FEC0BF02BC0FE
:1018C00028F02C502FEC0BF01200056E04380F0B93
:1018D000016E055051EC0BF004C001F0055051ECC5
:1018E0000BF012002D6E2DC02BF0000E58EC0CF0FA
:1018F0007BEC0CF012008C988C8ACBEC0BF0296EF0
:1019000029BEFBD78C9A1200066E06C004F0000EAA
:1019100065EC0CF08DEC0CF012008C988C8AE3ECEA
:101920000BF0026E02BEFBD78C9A1200354A362AA3
:10193000F29212EC0CF0120081EC0AF0FFD7232394
:0219400023037F
:020000040020DA
:08000000FFFFFFFFFFFFFFFF00
:020000040030CA
:0E000000FF291E3CFFBF81FF00000000000032
:00000001FF
