:040000006EEF00F0AF
:100008003A82FACF16F0FBCF17F0E9CF18F0EACF13
:1000180019F0E1CF1AF0E2CF1BF0D9CF1CF0DACFFC
:100028001DF0F3CF1EF0F4CF1FF0F6CF20F0F7CF7E
:1000380021F0F8CF22F0F5CF23F0F2B246EC0CF025
:10004800F0B00FEC08F0F0A227D0000E256E000EDD
:10005800246E000E256E000E246E25BE06D0255097
:1000680011E11E0E245CD8B00DD08AA40BD0210E4D
:10007800156E760EE82EFED7152EFCD700D0244A32
:10008800252AEBD71E0E24182510D8A403D04CEC33
:100098000CF002D0E9EC0BF023C0F5FF22C0F8FF0A
:1000A80021C0F7FF20C0F6FF1FC0F4FF1EC0F3FFFA
:1000B8001DC0DAFF1CC0D9FF1BC0E2FF1AC0E1FF58
:1000C80019C0EAFF18C0E9FF17C0FBFF16C0FAFF06
:0800D8003A9211007EEF0BF0DB
:101000000030313233343536373839414243444584
:1010100046004E6F6D627265207061730000000EB5
:10102000126E320E116E000E146E000E136E5AD038
:1010300011C001F012C002F037C003F0046A3AECAC
:101040000AF0300E0124D96E000E0220DA6EDF5055
:10105000BB6E37C003F0046A11C001F012C002F089
:101060003AEC0AF0300E0124D96E000E0220DA6E3E
:10107000DF500F6E010E0F24076E086A000E082263
:10108000000E0A6E020E096E80EC09F00750BE6E6B
:10109000E9EC0BF0000E146E000E136E14BE06D0B9
:1010A000145020E10A0E135CD8B01CD0F0A205D079
:1010B000000E126E000E116E15D0210E0F6E760E00
:1010C000E82EFED70F2EFCD700D014BE08D0145047
:1010D00004E1060E135CD8A002D0000EBE6E134AC7
:1010E000142ADCD711500F6E1250106E010E115ED3
:1010F000000E125A10BE05D010509AE10F04D8B05D
:1011000097D7000EBE6E8B92F0921200959E959C22
:10111000959A959895909592959495968C8E270E84
:10112000296EF50EE82EFED7292EFCD700F0030E0F
:10113000266E010EFCEC0AF0040E296EE40EE82E79
:10114000FED7292EFCD700D0030E266E010EFCEC34
:101150000AF0210EE82EFED700F0030E266E010ED7
:10116000FCEC0AF0210EE82EFED700F0020E266EEF
:10117000010EFCEC0AF023EC0CF0020E266E010EC0
:10118000FCEC0AF0080E266E010EFCEC0AF023ECD3
:101190000CF0000E266E010EFCEC0AF0080E266E16
:1011A000010EFCEC0AF023EC0CF0000E266E010E92
:1011B000FCEC0AF00C0E266E010EFCEC0AF023EC9F
:1011C0000CF0000E266E010EFCEC0AF0010E266EED
:1011D000010EFCEC0AF023EC0CF0000E266E010E62
:1011E000FCEC0AF0060E266E010EFCEC0AF023EC75
:1011F0000CF01200000E0001606F20D00001605161
:10120000010D2CC02EF02DC02FF0F3502E26F450DF
:101210002F222EC0F6FF2FC0F7FF000EF86E0F0E24
:10122000F76403D00800F55005D0F6CFE9FFF7CFFB
:10123000EAFFEF501AEC0CF00001602B0001605146
:10124000010D2CC02EF02DC02FF0F3502E26F4509F
:101250002F222EC0F6FF2FC0F7FF000EF86E0F0EE4
:10126000F76403D00800F55005D0F6CFE9FFF7CFBB
:10127000EAFFEF500009D8B41200C0D7000E2B6E61
:1012800029AE06D0286C291ED8B0292A010E2B6E53
:1012900027AE06D0266C271ED8B0272A010E2B1A9F
:1012A000000E2D6E000E2C6E28502910D8B41CD0C4
:1012B000010E2A6E04D0D890283629362A2A29AE63
:1012C000FAD7D8902C362D362850265C295027582E
:1012D000D8A005D02850265E2950275A2C80D890B7
:1012E000293228322A2EEDD72B50D8B404D02C6CBA
:1012F0002D1ED8B02D2A2CC026F02DC027F01200AC
:10130000000E0C6E0AAE06D0096C0A1ED8B00A2A6E
:10131000010E0C6E08AE06D0076C081ED8B0082A65
:10132000010E0C1A000E0E6E000E0D6E09500A1002
:10133000D8B41CD0010E0B6E04D0D89009360A36F2
:101340000B2A0AAEFAD7D8900D360E360950075C34
:101350000A500858D8A005D00950075E0A50085A0C
:101360000D80D8900A3209320B2EEDD70C50D8B42C
:1013700004D00D6C0E1ED8B00E2A0DC007F00EC0A2
:1013800008F01200000E0B6E1ED00B50010D07C0AE
:1013900009F008C00AF0F3500926F4500A2209C0E7
:1013A000F6FF0AC0F7FF000EF86E0F0EF76403D0C9
:1013B0000800F55005D0F6CFE9FFF7CFEAFFEF5070
:1013C0002CEC0CF00B2A0B50010D07C009F008C0E3
:1013D0000AF0F3500926F4500A2209C0F6FF0AC0A9
:1013E000F7FF000EF86E0F0EF76403D00800F550FB
:1013F00005D0F6CFE9FFF7CFEAFFEF500009D8B4E8
:101400001200C3D7000E2B6E27AE06D0266C271E07
:10141000D8B0272A010E2B6E29AE04D0286C291EC5
:10142000D8B0292A28502910D8B418D0010E2A6E15
:1014300004D0D890283629362A2A29AEFAD728503F
:10144000265C29502758D8A004D02850265E295061
:10145000275AD890293228322A2EF1D72B50D8B4C7
:1014600004D0266C271ED8B0272A26C026F027C015
:1014700027F01200000E066E02AE06D0016C021EAE
:10148000D8B0022A010E066E04AE04D0036C041E0E
:10149000D8B0042A03500410D8B418D0010E056E39
:1014A00004D0D89003360436052A04AEFAD7035088
:1014B000015C04500258D8A004D00350015E0450CF
:1014C000025AD89004320332052EF1D70650D8B410
:1014D00004D0016C021ED8B0022A01C001F002C083
:1014E00002F01200C7EC0BF0F18CF29293908A900C
:1014F00093800F013991F288F18AF09093928A9249
:1015000093820F013993F086F188F09293948A9434
:1015100093840F013995F08894928B92BA96BA9879
:10152000BA9ABA9CBA50FC0B0209BA6EBA84949467
:101530003F0EBD16CF0EBD16BD50F00B0C09BD6E93
:10154000000EBE6EF28CF28E000E396E000E386EFA
:1015500012000001656F64C026F0276A000E296E34
:101560000A0E286E3EEC09F02650300F0001666F1F
:1015700064C026F0276A000E296E0A0E286E02EC5F
:101580000AF02650300F0001676F000E0001686FEF
:1015900063C02BF00001655140EC0BF0660E2C6E21
:1015A000000E2D6EFAEC08F01200146E10C007F059
:1015B000086A000E0A6E0A0E096E80EC09F00750E8
:1015C000300F116E10C001F0026A000E046E0A0E98
:1015D000036E3AEC0AF00150300F126E000E136EDB
:1015E0000FC006F0145061EC0BF0110E076E000EE8
:1015F000086EC2EC09F01200286E2850D8A403D05F
:10160000276A272A01D0276A273A8C502718EF0B20
:1016100027188C6E8C9A8C8C8C968C948C928C90D7
:1016200000F000F026C027F00F0E27168C50F00BAC
:1016300027108C6E00F000F08C9C1200036E03509B
:10164000D8A403D0026A022A01D0026A023A8C505E
:101650000218EF0B02188C6E8C9A8C8C8C968C94E2
:101660008C928C9000F000F001C002F00F0E021678
:101670008C50F00B02108C6E00F000F08C9C12006D
:101680000001626F020E2B6012000F0E00016265F6
:1016900001D012002B04D8B402D0800E01D0C00EAD
:1016A00062C02CF02D6A2C100001606F2D500001DB
:1016B000616F60C029F0010EF7EC0BF023EC0CF029
:1016C00012000B6E020E066012000F0E0B6401D0AA
:1016D00012000604D8B402D0800E01D0C00E0BC098
:1016E00007F0086A0710096E08500A6E09C004F076
:1016F000010E04EC0CF035EC0CF01200A20EF66EAC
:10170000180EF76E000EF86E00EE30F010EE08F0D6
:101710000900F5CFEEFFE550E150FAE1396A386A89
:101720003A903A92000EF86E000155EF0CF0958059
:101730009582958495868C8C00F000F08338F00BB0
:10174000266E8C9C8C8C00F000F083500F0B2612C0
:101750008C9C959095929594959626501200958024
:101760009582958495868C8C00F000F08338F00B80
:10177000016E8C9C8C8C00F000F083500F0B0112DA
:101780008C9C95909592959495960150120086ECBC
:1017900008F0D9EC0BF0000E2B6E000E40EC0BF0B5
:1017A000120E2C6E100E2D6EFAEC08F011EC0CF0EF
:1017B0001200010E296E010EF7EC0BF0110E2B6ECC
:1017C0003A0EE82EFED72B2EFCD700D023EC0CF0DF
:1017D00012008BB203D0016A012A01D0016A0146CE
:1017E0008B500118FD0B01188B6EF09012002A6EC1
:1017F00029380F0B266E2A50FCEC0AF029C026F07F
:101800002A50FCEC0AF01200056E04380F0B016E32
:1018100005501EEC0BF004C001F005501EEC0BF05F
:101820001200010E0001636F38C064F0000EA9ECD5
:101830000AF012002B6E2BC029F0000EF7EC0BF013
:1018400023EC0CF012008C988C8A97EC0BF0276E2E
:1018500027BEFBD78C9A1200066E06C004F0000E5D
:1018600004EC0CF035EC0CF012008C988C8AAFEC88
:101870000BF0026E02BEFBD78C9A1200010E0F6EA7
:1018800038C010F0000ED5EC0AF01200384A392AA0
:10189000F2923EEC0CF01200000E396E000E386E23
:1018A00012001A1A1A151A1F1F0772EC0AF0FFD736
:020000040020DA
:08000000FFFFFFFFFFFFFFFF00
:020000040030CA
:0E000000FF291E3CFFBF81FF00000000000032
:00000001FF
