:040000006EEF00F0AF
:100008003982FACF16F0FBCF17F0E9CF18F0EACF14
:1000180019F0E1CF1AF0E2CF1BF0D9CF1CF0DACFFC
:100028001DF0F3CF1EF0F4CF1FF0F6CF20F0F7CF7E
:1000380021F0F8CF22F0F5CF23F0F2B23DEC0CF02E
:10004800F0B00FEC08F0F0A227D0000E256E000EDD
:10005800246E000E256E000E246E25BE06D0255097
:1000680011E11E0E245CD8B00DD08AA40BD0210E4D
:10007800156E760EE82EFED7152EFCD700D0244A32
:10008800252AEBD71E0E24182510D8A403D043EC3C
:100098000CF002D0E1EC0BF023C0F5FF22C0F8FF12
:1000A80021C0F7FF20C0F6FF1FC0F4FF1EC0F3FFFA
:1000B8001DC0DAFF1CC0D9FF1BC0E2FF1AC0E1FF58
:1000C80019C0EAFF18C0E9FF17C0FBFF16C0FAFF06
:0800D8003992110076EF0BF0E4
:101000000030313233343536373839414243444584
:1010100046004E6F6D627265207061730000000EB5
:10102000126E320E116E000E146E000E136E5AD038
:1010300011C001F012C002F036C003F0046A36ECB1
:101040000AF0330E0124D96E000E0220DA6EDF5052
:10105000BB6E36C003F0046A11C001F012C002F08A
:1010600036EC0AF0330E0124D96E000E0220DA6E3F
:10107000DF500F6E010E0F24076E086A000E082263
:10108000000E0A6E020E096E3CEC09F00750BE6EAF
:10109000E1EC0BF0000E146E000E136E14BE06D0C1
:1010A000145020E10A0E135CD8B01CD0F0A205D079
:1010B000000E126E000E116E15D0210E0F6E760E00
:1010C000E82EFED70F2EFCD700D014BE08D0145047
:1010D00004E1060E135CD8A002D0000EBE6E134AC7
:1010E000142ADCD711500F6E1250106E010E115ED3
:1010F000000E125A10BE05D010509AE10F04D8B05D
:1011000097D7000EBE6E8B92F0921200959E959C22
:10111000959A959895909592959495968C8E270E84
:10112000296EF50EE82EFED7292EFCD700F0030E0F
:10113000266E010EF8EC0AF0040E296EE40EE82E7D
:10114000FED7292EFCD700D0030E266E010EF8EC38
:101150000AF0210EE82EFED700F0030E266E010ED7
:10116000F8EC0AF0210EE82EFED700F0020E266EF3
:10117000010EF8EC0AF012EC0CF0020E266E010ED5
:10118000F8EC0AF0080E266E010EF8EC0AF012ECEC
:101190000CF0000E266E010EF8EC0AF0080E266E1A
:1011A000010EF8EC0AF012EC0CF0000E266E010EA7
:1011B000F8EC0AF00C0E266E010EF8EC0AF012ECB8
:1011C0000CF0000E266E010EF8EC0AF0010E266EF1
:1011D000010EF8EC0AF012EC0CF0000E266E010E77
:1011E000F8EC0AF0060E266E010EF8EC0AF012EC8E
:1011F0000CF01200000E2B6E29AE06D0286C291EB2
:10120000D8B0292A010E2B6E27AE06D0266C271ED9
:10121000D8B0272A010E2B1A000E2D6E000E2C6E50
:1012200028502910D8B41CD0010E2A6E04D0D890B2
:10123000283629362A2A29AEFAD7D8902C362D36C8
:101240002850265C29502758D8A005D02850265E63
:101250002950275A2C80D890293228322A2EEDD7AF
:101260002B50D8B404D02C6C2D1ED8B02D2A2CC0F5
:1012700026F02DC027F01200000E0C6E0AAE06D02C
:10128000096C0A1ED8B00A2A010E0C6E08AE06D0F0
:10129000076C081ED8B0082A010E0C1A000E0E6E3C
:1012A000000E0D6E09500A10D8B41CD0010E0B6E42
:1012B00004D0D89009360A360B2A0AAEFAD7D8904D
:1012C0000D360E360950075C0A500858D8A005D0D4
:1012D0000950075E0A50085A0D80D8900A32093228
:1012E0000B2EEDD70C50D8B404D00D6C0E1ED8B018
:1012F0000E2A0DC007F00EC008F01200000E306E6E
:101300001ED03050010D2CC02EF02DC02FF0F35008
:101310002E26F4502F222EC0F6FF2FC0F7FF000E0E
:10132000F86E0F0EF76403D00800F55005D0F6CF25
:10133000E9FFF7CFEAFFEF5009EC0CF0302A30500C
:10134000010D2CC02EF02DC02FF0F3502E26F4509E
:101350002F222EC0F6FF2FC0F7FF000EF86E0F0EE3
:10136000F76403D00800F55005D0F6CFE9FFF7CFBA
:10137000EAFFEF500009D8B41200C3D7000E0B6E7D
:101380001ED00B50010D07C009F008C00AF0F35041
:101390000926F4500A2209C0F6FF0AC0F7FF000E22
:1013A000F86E0F0EF76403D00800F55005D0F6CFA5
:1013B000E9FFF7CFEAFFEF501BEC0CF00B2A0B50C4
:1013C000010D07C009F008C00AF0F3500926F450D7
:1013D0000A2209C0F6FF0AC0F7FF000EF86E0F0ED2
:1013E000F76403D00800F55005D0F6CFE9FFF7CF3A
:1013F000EAFFEF500009D8B41200C3D7000E2B6EDD
:1014000027AE06D0266C271ED8B0272A010E2B6ED9
:1014100029AE04D0286C291ED8B0292A28502910BA
:10142000D8B418D0010E2A6E04D0D89028362936A8
:101430002A2A29AEFAD72850265C29502758D8A046
:1014400004D02850265E2950275AD89029322832B5
:101450002A2EF1D72B50D8B404D0266C271ED8B032
:10146000272A26C026F027C027F01200000E066E9D
:1014700002AE06D0016C021ED8B0022A010E066E22
:1014800004AE04D0036C041ED8B0042A0350041028
:10149000D8B418D0010E056E04D0D89003360436A7
:1014A000052A04AEFAD70350015C04500258D8A0B4
:1014B00004D00350015E0450025AD8900432033223
:1014C000052EF1D70650D8B404D0016C021ED8B056
:1014D000022A01C001F002C002F01200BFEC0BF0C2
:1014E000F18CF29293908A9093800F013991F28857
:1014F000F18AF09093928A9293820F013993F08649
:10150000F188F09293948A9493840F013995F0882E
:1015100094928B92BA96BA98BA9ABA9CBA50FC0B2B
:101520000209BA6EBA8494943F0EBD16CF0EBD1652
:10153000BD50F00B0C09BD6E000EBE6EF28CF28E2B
:10154000000E386E000E376E12000001606F32C060
:1015500026F0276A000E296E0A0E286EFAEC08F0B3
:101560002650300F0001616F32C026F0276A000E4E
:10157000296E0A0E286EFEEC09F02650300F00018D
:10158000626F000E0001636F31C02BF000016051EB
:101590003CEC0BF0610E2C6E000E2D6E7EEC09F013
:1015A0001200146E10C007F0086A000E0A6E0A0ED0
:1015B000096E3CEC09F00750300F116E10C001F0BD
:1015C000026A000E046E0A0E036E36EC0AF0015039
:1015D000300F126E000E136E0FC006F0145059EC4F
:1015E0000BF0110E076E000E086EBEEC09F0120033
:1015F000286E2850D8A403D0276A272A01D0276A4A
:10160000273A8C502718EF0B27188C6E8C9A8C8CED
:101610008C968C948C928C9000F000F026C027F071
:101620000F0E27168C50F00B27108C6E00F000F078
:101630008C9C1200036E0350D8A403D0026A022AC5
:1016400001D0026A023A8C500218EF0B02188C6E1D
:101650008C9A8C8C8C968C948C928C9000F000F0F0
:1016600001C002F00F0E02168C50F00B02108C6EAF
:1016700000F000F08C9C1200306E020E2B60120005
:101680000F0E306401D012002B04D8B402D0800EAB
:1016900001D0C00E30C02CF02D6A2C102E6E2D50B3
:1016A0002F6E2EC029F0010EEFEC0BF012EC0CF0B7
:1016B00012000B6E020E066012000F0E0B6401D0BA
:1016C00012000604D8B402D0800E01D0C00E0BC0A8
:1016D00007F0086A0710096E08500A6E09C004F086
:1016E000010EFCEC0BF024EC0CF01200960EF66EE2
:1016F000180EF76E000EF86E00EE33F010EE04F0E8
:101700000900F5CFEEFFE550E150FAE1386A376A9B
:1017100039903992000EF86E000148EF0CF0958078
:101720009582958495868C8C00F000F08338F00BC0
:10173000266E8C9C8C8C00F000F083500F0B2612D0
:101740008C9C959095929594959626501200958034
:101750009582958495868C8C00F000F08338F00B90
:10176000016E8C9C8C8C00F000F083500F0B0112EA
:101770008C9C95909592959495960150120086ECCC
:1017800008F0D1EC0BF0000E2B6E000E3CEC0BF0D1
:10179000120E2C6E100E2D6E7EEC09F02DEC0CF05E
:1017A0001200010E296E010EEFEC0BF0110E2B6EE4
:1017B0003A0EE82EFED72B2EFCD700D012EC0CF000
:1017C00012008BB203D0016A012A01D0016A0146DE
:1017D0008B500118FD0B01188B6EF09212002A6ECF
:1017E00029380F0B266E2A50F8EC0AF029C026F093
:1017F0002A50F8EC0AF01200056E04380F0B016E47
:1018000005501AEC0BF004C001F005501AEC0BF077
:1018100012002B6E2BC029F0000EEFEC0BF012EC37
:101820000CF012008C988C8A8FEC0BF0276E27BE80
:10183000FBD78C9A1200066E06C004F0000EFCEC7A
:101840000BF024EC0CF012008C988C8AA7EC0BF0B7
:10185000026E02BEFBD78C9A1200010E316E37C0A9
:1018600032F0000EA5EC0AF01200010E0F6E37C028
:1018700010F0000ED1EC0AF01200374A382AF2922A
:1018800035EC0CF01200000E386E000E376E1200B0
:0A1890006EEC0AF0FFD723232303B8
:020000040020DA
:08000000FFFFFFFFFFFFFFFF00
:020000040030CA
:0E000000FF291E3CFFBF81FF00000000000032
:00000001FF
