:040000006EEF00F0AF
:100008003782FACF19F0FBCF1AF0E9CF1BF0EACF0D
:100018001CF0E1CF1DF0E2CF1EF0D9CF1FF0DACFF0
:1000280020F0F3CF21F0F4CF22F0F6CF23F0F7CF72
:1000380024F0F8CF25F0F5CF26F0F2B24BEC0CF017
:10004800F0B083EC08F0F0A227D0000E286E000E66
:10005800276E000E286E000E276E28BE06D0285088
:1000680011E11E0E275CD8B00DD08AA40BD0210E4A
:10007800186E760EE82EFED7182EFCD700D0274A29
:10008800282AEBD71E0E27182810D8A403D051EC25
:100098000CF002D0EEEC0BF026C0F5FF25C0F8FFFF
:1000A80024C0F7FF23C0F6FF22C0F4FF21C0F3FFEE
:1000B80020C0DAFF1FC0D9FF1EC0E2FF1DC0E1FF4C
:1000C8001CC0EAFF1BC0E9FF1AC0FBFF19C0FAFFFA
:0800D80037921100DCEF0AF081
:101000000030313233343536373839414243444584
:1010100046004E6F6D627265207061730000959E90
:10102000959C959A959895909592959495968C8E79
:10103000270E2C6EF50EE82EFED72C2EFCD700F0D6
:10104000030E296E010EFEEC0AF0040E2C6EE40E67
:10105000E82EFED72C2EFCD700D0030E296E010EF1
:10106000FEEC0AF0210EE82EFED700F0030E296EEA
:10107000010EFEEC0AF0210EE82EFED700F0020E63
:10108000296E010EFEEC0AF028EC0CF0020E296E1F
:10109000010EFEEC0AF0080E296E010EFEEC0AF0BD
:1010A00028EC0CF0000E296E010EFEEC0AF0080E82
:1010B000296E010EFEEC0AF028EC0CF0000E296EF1
:1010C000010EFEEC0AF00C0E296E010EFEEC0AF089
:1010D00028EC0CF0000E296E010EFEEC0AF0010E59
:1010E000296E010EFEEC0AF028EC0CF0000E296EC1
:1010F000010EFEEC0AF0060E296E010EFEEC0AF05F
:1011000028EC0CF01200000E176E000E166E010E89
:10111000156EF40E146E000E136E000E126E39D0A2
:1011200016C001F017C002F036C003F0046A1AECD2
:101130000AF0600E0124D96E000E0220DA6EDF5034
:10114000BB6E36C003F0046A16C001F017C002F08F
:101150001AEC0AF0600E0124D96E000E0220DA6E3D
:10116000DF500F6E010E0F24076E086A000E082272
:10117000000E0A6E020E096E20EC09F00750BE6EDA
:10118000EEEC0BF0140E0F6E7A0EE82EFED70F2E3B
:10119000FCD716500F6E1750106E164A172A1450AF
:1011A0000F5C1050800A116E1550800A1158D8A09B
:1011B000B7D7000EBE6E8B92F0921200000E2E6E0C
:1011C0002CAE06D02B6C2C1ED8B02C2A010E2E6E05
:1011D0002AAE06D0296C2A1ED8B02A2A010E2E1A51
:1011E000000E306E000E2F6E2B502C10D8B41CD079
:1011F000010E2D6E04D0D8902B362C362D2A2CAE15
:10120000FAD7D8902F3630362B50295C2C502A58DC
:10121000D8A005D02B50295E2C502A5A2F80D89068
:101220002C322B322D2EEDD72E50D8B404D02F6C6B
:10123000301ED8B0302A2FC029F030C02AF012005A
:10124000000E0C6E0AAE06D0096C0A1ED8B00A2A2F
:10125000010E0C6E08AE06D0076C081ED8B0082A26
:10126000010E0C1A000E0E6E000E0D6E09500A10C3
:10127000D8B41CD0010E0B6E04D0D89009360A36B3
:101280000B2A0AAEFAD7D8900D360E360950075CF5
:101290000A500858D8A005D00950075E0A50085ACD
:1012A0000D80D8900A3209320B2EEDD70C50D8B4ED
:1012B00004D00D6C0E1ED8B00E2A0DC007F00EC063
:1012C00008F01200000E336E1ED03350010D2FC0F7
:1012D00031F030C032F0F3503126F450322231C0B8
:1012E000F6FF32C0F7FF000EF86E0F0EF76403D062
:1012F0000800F55005D0F6CFE9FFF7CFEAFFEF5031
:101300001FEC0CF0332A3350010D2FC031F030C0E8
:1013100032F0F3503126F450322231C0F6FF32C0A1
:10132000F7FF000EF86E0F0EF76403D00800F550BB
:1013300005D0F6CFE9FFF7CFEAFFEF500009D8B4A8
:101340001200C3D7000E0B6E1ED00B50010D07C04C
:1013500009F008C00AF0F3500926F4500A2209C027
:10136000F6FF0AC0F7FF000EF86E0F0EF76403D009
:101370000800F55005D0F6CFE9FFF7CFEAFFEF50B0
:1013800031EC0CF00B2A0B50010D07C009F008C01E
:101390000AF0F3500926F4500A2209C0F6FF0AC0E9
:1013A000F7FF000EF86E0F0EF76403D00800F5503B
:1013B00005D0F6CFE9FFF7CFEAFFEF500009D8B428
:1013C0001200C3D7000E2E6E2AAE06D0296C2A1E3C
:1013D000D8B02A2A010E2E6E2CAE04D02B6C2C1EF7
:1013E000D8B02C2A2B502C10D8B418D0010E2D6E4A
:1013F00004D0D8902B362C362D2A2CAEFAD72B5071
:10140000295C2C502A58D8A004D02B50295E2C508F
:101410002A5AD8902C322B322D2EF1D72E50D8B4F8
:1014200004D0296C2A1ED8B02A2A29C029F02AC043
:101430002AF01200000E066E02AE06D0016C021EEB
:10144000D8B0022A010E066E04AE04D0036C041E4E
:10145000D8B0042A03500410D8B418D0010E056E79
:1014600004D0D89003360436052A04AEFAD70350C8
:10147000015C04500258D8A004D00350015E04500F
:10148000025AD89004320332052EF1D70650D8B450
:1014900004D0016C021ED8B0022A01C001F002C0C3
:1014A00002F01200CCEC0BF0F18CF29293908A9047
:1014B00093800F013991F288F18AF09093928A9289
:1014C00093820F013993F086F188F09293948A9475
:1014D00093840F013995F08894928B92BA96BA98BA
:1014E000BA9ABA9CBA50FC0B0209BA6EBA849494A8
:1014F0003F0EBD16CF0EBD16BD50F00B0C09BD6ED4
:10150000000EBE6EF28CF28E000E356E000E346E42
:1015100012000001A26FA1C029F02A6A000E2C6EF1
:101520000A0E2B6EDEEC08F02950300F0001A36F7D
:10153000A1C029F02A6A000E2C6E0A0E2B6EE2EC76
:1015400009F02950300F0001A46F000E0001A56FB3
:10155000A0C02EF00001A25162EC0BF0A30E2F6E82
:10156000000E306E62EC09F01200146E10C007F02D
:10157000086A000E0A6E0A0E096E20EC09F0075088
:10158000300F116E10C001F0026A000E046E0A0ED8
:10159000036E1AEC0AF00150300F126E000E136E3B
:1015A0000FC006F014507FEC0BF0110E076E000E0A
:1015B000086EA2EC09F01200840EF66E160EF76E9D
:1015C000000EF86E00EE60F010EE40F00900F5CF6E
:1015D000EEFFE550E150FAE1B20EF66E180EF76E2E
:1015E000000EF86E0900F5CF36F0356A346A379090
:1015F0003792000EF86E000156EF0CF02B6E2B5058
:10160000D8A403D02A6A2A2A01D02A6A2A3A8C50FE
:101610002A18EF0B2A188C6E8C9A8C8C8C968C94D2
:101620008C928C9000F000F029C02AF00F0E2A1640
:101630008C50F00B2A108C6E00F000F08C9C120085
:10164000036E0350D8A403D0026A022A01D0026AB2
:10165000023A8C500218EF0B02188C6E8C9A8C8C0C
:101660008C968C948C928C9000F000F001C002F06B
:101670000F0E02168C50F00B02108C6E00F000F072
:101680008C9C12002727270027272700272727279A
:10169000232323231F1F1F1F1F1F1F1F232323233A
:1016A00023232323272727001F1F1F002323230073
:1016B0002323230027272727272727270000000089
:1016C00000000000336E020E2E6012000F0E336415
:1016D00001D012002E04D8B402D0800E01D0C00E6A
:1016E00033C02FF0306A2F10316E3050326E31C05F
:1016F0002CF0010EFCEC0BF028EC0CF012000B6E41
:10170000020E066012000F0E0B6401D012000604D8
:10171000D8B402D0800E01D0C00E0BC007F0086A0A
:101720000710096E08500A6E09C004F0010E09EC9A
:101730000CF03AEC0CF01200958095829584958619
:101740008C8C00F000F08338F00B296E8C9C8C8C14
:1017500000F000F083500F0B29128C9C959095920D
:10176000959495962950120095809582958495863A
:101770008C8C00F000F08338F00B016E8C9C8C8C0C
:1017800000F000F083500F0B01128C9C9590959205
:1017900095949596015012000FEC08F0DEEC0BF0DA
:1017A000000E2E6E000E62EC0BF0120E2F6E100E5D
:1017B000306E62EC09F016EC0CF01200010E2C6E8B
:1017C000010EFCEC0BF0110E2E6E3A0EE82EFED739
:1017D0002E2EFCD700D028EC0CF012008BB203D0D8
:1017E000016A012A01D0016A01468B500118FD0BE4
:1017F00001188B6EF09012002D6E2C380F0B296E95
:101800002D50FEEC0AF02CC029F02D50FEEC0AF011
:101810001200056E04380F0B016E055020EC0BF022
:1018200004C001F0055020EC0BF01200010E000185
:10183000A06F34C0A1F0000E89EC0AF012002E6EE9
:101840002EC02CF0000EFCEC0BF028EC0CF012007B
:101850008C988C8A9CEC0BF02A6E2ABEFBD78C9A53
:101860001200066E06C004F0000E09EC0CF03AEC13
:101870000CF012008C988C8AB4EC0BF0026E02BE55
:10188000FBD78C9A1200010E0F6E34C010F0000EC0
:10189000B5EC0AF01200344A352AF29243EC0CF00F
:1018A0001200000E356E000E346E120052EC0AF07B
:0318B000FFD7401F
:020000040020DA
:08000000FFFFFFFFFFFFFFFF00
:020000040030CA
:0E000000FF291E3CFFBF81FF00000000000032
:00000001FF
